{
  "_format": "hh-sol-artifact-1",
  "contractName": "Upload",
  "sourceName": "contracts/Upload.sol",
  "abi": [
    {
      "anonymous": false,
      "inputs": [
        {
          "indexed": true,
          "internalType": "address",
          "name": "owner",
          "type": "address"
        },
        {
          "indexed": true,
          "internalType": "address",
          "name": "user",
          "type": "address"
        },
        {
          "indexed": false,
          "internalType": "string",
          "name": "file",
          "type": "string"
        }
      ],
      "name": "AccessGranted",
      "type": "event"
    },
    {
      "anonymous": false,
      "inputs": [
        {
          "indexed": true,
          "internalType": "address",
          "name": "owner",
          "type": "address"
        },
        {
          "indexed": true,
          "internalType": "address",
          "name": "user",
          "type": "address"
        },
        {
          "indexed": false,
          "internalType": "string",
          "name": "file",
          "type": "string"
        }
      ],
      "name": "AccessRevoked",
      "type": "event"
    },
    {
      "anonymous": false,
      "inputs": [
        {
          "indexed": true,
          "internalType": "address",
          "name": "user",
          "type": "address"
        },
        {
          "indexed": false,
          "internalType": "string",
          "name": "url",
          "type": "string"
        }
      ],
      "name": "FileAdded",
      "type": "event"
    },
    {
      "inputs": [
        {
          "internalType": "string",
          "name": "url",
          "type": "string"
        }
      ],
      "name": "addFile",
      "outputs": [],
      "stateMutability": "nonpayable",
      "type": "function"
    },
    {
      "inputs": [
        {
          "internalType": "address",
          "name": "owner",
          "type": "address"
        },
        {
          "internalType": "address",
          "name": "user",
          "type": "address"
        }
      ],
      "name": "getAccessibleFiles",
      "outputs": [
        {
          "internalType": "string[]",
          "name": "",
          "type": "string[]"
        }
      ],
      "stateMutability": "view",
      "type": "function"
    },
    {
      "inputs": [
        {
          "internalType": "address",
          "name": "user",
          "type": "address"
        }
      ],
      "name": "getFileList",
      "outputs": [
        {
          "internalType": "string[]",
          "name": "",
          "type": "string[]"
        }
      ],
      "stateMutability": "view",
      "type": "function"
    },
    {
      "inputs": [
        {
          "internalType": "string",
          "name": "file",
          "type": "string"
        }
      ],
      "name": "getaccessibleaccounts",
      "outputs": [
        {
          "internalType": "address[]",
          "name": "",
          "type": "address[]"
        }
      ],
      "stateMutability": "view",
      "type": "function"
    },
    {
      "inputs": [
        {
          "internalType": "address",
          "name": "user",
          "type": "address"
        },
        {
          "internalType": "string",
          "name": "file",
          "type": "string"
        }
      ],
      "name": "grantAccess",
      "outputs": [],
      "stateMutability": "nonpayable",
      "type": "function"
    },
    {
      "inputs": [
        {
          "internalType": "address",
          "name": "user",
          "type": "address"
        },
        {
          "internalType": "string",
          "name": "file",
          "type": "string"
        }
      ],
      "name": "revokeAccess",
      "outputs": [],
      "stateMutability": "nonpayable",
      "type": "function"
    }
  ],
  "bytecode": "0x608060405234801561001057600080fd5b5061177c806100206000396000f3fe608060405234801561001057600080fd5b50600436106100625760003560e01c80636a44cac914610067578063a37b8f9a14610083578063b2b43370146100b3578063e50fe48e146100e3578063eb9b9b64146100ff578063fad8a4661461011b575b600080fd5b610081600480360381019061007c9190610e69565b61014b565b005b61009d60048036038101906100989190610ec5565b610269565b6040516100aa9190610fcc565b60405180910390f35b6100cd60048036038101906100c89190610fee565b610315565b6040516100da919061115c565b60405180910390f35b6100fd60048036038101906100f89190610e69565b61042c565b005b61011960048036038101906101149190610ec5565b610635565b005b6101356004803603810190610130919061117e565b6106f7565b604051610142919061115c565b60405180910390f35b600160003373ffffffffffffffffffffffffffffffffffffffff1673ffffffffffffffffffffffffffffffffffffffff16815260200190815260200160002060008373ffffffffffffffffffffffffffffffffffffffff1673ffffffffffffffffffffffffffffffffffffffff168152602001908152602001600020600101816040516101d891906111fa565b908152602001604051809103902060006101000a81549060ff02191690556102008183610b03565b8173ffffffffffffffffffffffffffffffffffffffff163373ffffffffffffffffffffffffffffffffffffffff167f0a2382b7b0f44ee62df753c00034038c109332bf9b8f52418af74aa2859780fb8360405161025d919061125b565b60405180910390a35050565b606060028260405161027b91906111fa565b908152602001604051809103902080548060200260200160405190810160405280929190818152602001828054801561030957602002820191906000526020600020905b8160009054906101000a900473ffffffffffffffffffffffffffffffffffffffff1673ffffffffffffffffffffffffffffffffffffffff16815260200190600101908083116102bf575b50505050509050919050565b60606000808373ffffffffffffffffffffffffffffffffffffffff1673ffffffffffffffffffffffffffffffffffffffff168152602001908152602001600020805480602002602001604051908101604052809291908181526020016000905b82821015610421578382906000526020600020018054610394906112ac565b80601f01602080910402602001604051908101604052809291908181526020018280546103c0906112ac565b801561040d5780601f106103e25761010080835404028352916020019161040d565b820191906000526020600020905b8154815290600101906020018083116103f057829003601f168201915b505050505081526020019060010190610375565b505050509050919050565b8173ffffffffffffffffffffffffffffffffffffffff163373ffffffffffffffffffffffffffffffffffffffff160361049a576040517f08c379a000000000000000000000000000000000000000000000000000000000815260040161049190611329565b60405180910390fd5b60018060003373ffffffffffffffffffffffffffffffffffffffff1673ffffffffffffffffffffffffffffffffffffffff16815260200190815260200160002060008473ffffffffffffffffffffffffffffffffffffffff1673ffffffffffffffffffffffffffffffffffffffff1681526020019081526020016000206001018260405161052891906111fa565b908152602001604051809103902060006101000a81548160ff02191690831515021790555060028160405161055d91906111fa565b9081526020016040518091039020829080600181540180825580915050600190039060005260206000200160009091909190916101000a81548173ffffffffffffffffffffffffffffffffffffffff021916908373ffffffffffffffffffffffffffffffffffffffff1602179055508173ffffffffffffffffffffffffffffffffffffffff163373ffffffffffffffffffffffffffffffffffffffff167fc7e5c007251689b9bc3cb624f55714afc5988f3e3b4e20cc6a606d7bad6faeca83604051610629919061125b565b60405180910390a35050565b6000803373ffffffffffffffffffffffffffffffffffffffff1673ffffffffffffffffffffffffffffffffffffffff168152602001908152602001600020819080600181540180825580915050600190039060005260206000200160009091909190915090816106a591906114ff565b503373ffffffffffffffffffffffffffffffffffffffff167f771ad20575501c8cafc4a8793006515911d6e497fd5838018654c9b50347430c826040516106ec919061125b565b60405180910390a250565b60608173ffffffffffffffffffffffffffffffffffffffff168373ffffffffffffffffffffffffffffffffffffffff1603610767576040517f08c379a000000000000000000000000000000000000000000000000000000000815260040161075e9061161d565b60405180910390fd5b60008060008573ffffffffffffffffffffffffffffffffffffffff1673ffffffffffffffffffffffffffffffffffffffff168152602001908152602001600020805480602002602001604051908101604052809291908181526020016000905b828210156108735783829060005260206000200180546107e6906112ac565b80601f0160208091040260200160405190810160405280929190818152602001828054610812906112ac565b801561085f5780601f106108345761010080835404028352916020019161085f565b820191906000526020600020905b81548152906001019060200180831161084257829003601f168201915b5050505050815260200190600101906107c7565b5050505090506000805b825181101561097057600160008773ffffffffffffffffffffffffffffffffffffffff1673ffffffffffffffffffffffffffffffffffffffff16815260200190815260200160002060008673ffffffffffffffffffffffffffffffffffffffff1673ffffffffffffffffffffffffffffffffffffffff1681526020019081526020016000206001018382815181106109185761091761163d565b5b602002602001015160405161092d91906111fa565b908152602001604051809103902060009054906101000a900460ff161561095d5781806109599061169b565b9250505b80806109689061169b565b91505061087d565b5060008167ffffffffffffffff81111561098d5761098c610d3e565b5b6040519080825280602002602001820160405280156109c057816020015b60608152602001906001900390816109ab5790505b5090506000915060005b8351811015610af657600160008873ffffffffffffffffffffffffffffffffffffffff1673ffffffffffffffffffffffffffffffffffffffff16815260200190815260200160002060008773ffffffffffffffffffffffffffffffffffffffff1673ffffffffffffffffffffffffffffffffffffffff168152602001908152602001600020600101848281518110610a6557610a6461163d565b5b6020026020010151604051610a7a91906111fa565b908152602001604051809103902060009054906101000a900460ff1615610ae357838181518110610aae57610aad61163d565b5b6020026020010151828481518110610ac957610ac861163d565b5b60200260200101819052508280610adf9061169b565b9350505b8080610aee9061169b565b9150506109ca565b5080935050505092915050565b6000600283604051610b1591906111fa565b9081526020016040518091039020905060005b8180549050811015610cab578273ffffffffffffffffffffffffffffffffffffffff16828281548110610b5e57610b5d61163d565b5b9060005260206000200160009054906101000a900473ffffffffffffffffffffffffffffffffffffffff1673ffffffffffffffffffffffffffffffffffffffff1603610c98578160018380549050610bb691906116e3565b81548110610bc757610bc661163d565b5b9060005260206000200160009054906101000a900473ffffffffffffffffffffffffffffffffffffffff16828281548110610c0557610c0461163d565b5b9060005260206000200160006101000a81548173ffffffffffffffffffffffffffffffffffffffff021916908373ffffffffffffffffffffffffffffffffffffffff16021790555081805480610c5e57610c5d611717565b5b6001900381819060005260206000200160006101000a81549073ffffffffffffffffffffffffffffffffffffffff02191690559055610cab565b8080610ca39061169b565b915050610b28565b50505050565b6000604051905090565b600080fd5b600080fd5b600073ffffffffffffffffffffffffffffffffffffffff82169050919050565b6000610cf082610cc5565b9050919050565b610d0081610ce5565b8114610d0b57600080fd5b50565b600081359050610d1d81610cf7565b92915050565b600080fd5b600080fd5b6000601f19601f8301169050919050565b7f4e487b7100000000000000000000000000000000000000000000000000000000600052604160045260246000fd5b610d7682610d2d565b810181811067ffffffffffffffff82111715610d9557610d94610d3e565b5b80604052505050565b6000610da8610cb1565b9050610db48282610d6d565b919050565b600067ffffffffffffffff821115610dd457610dd3610d3e565b5b610ddd82610d2d565b9050602081019050919050565b82818337600083830152505050565b6000610e0c610e0784610db9565b610d9e565b905082815260208101848484011115610e2857610e27610d28565b5b610e33848285610dea565b509392505050565b600082601f830112610e5057610e4f610d23565b5b8135610e60848260208601610df9565b91505092915050565b60008060408385031215610e8057610e7f610cbb565b5b6000610e8e85828601610d0e565b925050602083013567ffffffffffffffff811115610eaf57610eae610cc0565b5b610ebb85828601610e3b565b9150509250929050565b600060208284031215610edb57610eda610cbb565b5b600082013567ffffffffffffffff811115610ef957610ef8610cc0565b5b610f0584828501610e3b565b91505092915050565b600081519050919050565b600082825260208201905092915050565b6000819050602082019050919050565b610f4381610ce5565b82525050565b6000610f558383610f3a565b60208301905092915050565b6000602082019050919050565b6000610f7982610f0e565b610f838185610f19565b9350610f8e83610f2a565b8060005b83811015610fbf578151610fa68882610f49565b9750610fb183610f61565b925050600181019050610f92565b5085935050505092915050565b60006020820190508181036000830152610fe68184610f6e565b905092915050565b60006020828403121561100457611003610cbb565b5b600061101284828501610d0e565b91505092915050565b600081519050919050565b600082825260208201905092915050565b6000819050602082019050919050565b600081519050919050565b600082825260208201905092915050565b60005b83811015611081578082015181840152602081019050611066565b60008484015250505050565b600061109882611047565b6110a28185611052565b93506110b2818560208601611063565b6110bb81610d2d565b840191505092915050565b60006110d2838361108d565b905092915050565b6000602082019050919050565b60006110f28261101b565b6110fc8185611026565b93508360208202850161110e85611037565b8060005b8581101561114a578484038952815161112b85826110c6565b9450611136836110da565b925060208a01995050600181019050611112565b50829750879550505050505092915050565b6000602082019050818103600083015261117681846110e7565b905092915050565b6000806040838503121561119557611194610cbb565b5b60006111a385828601610d0e565b92505060206111b485828601610d0e565b9150509250929050565b600081905092915050565b60006111d482611047565b6111de81856111be565b93506111ee818560208601611063565b80840191505092915050565b600061120682846111c9565b915081905092915050565b600082825260208201905092915050565b600061122d82611047565b6112378185611211565b9350611247818560208601611063565b61125081610d2d565b840191505092915050565b600060208201905081810360008301526112758184611222565b905092915050565b7f4e487b7100000000000000000000000000000000000000000000000000000000600052602260045260246000fd5b600060028204905060018216806112c457607f821691505b6020821081036112d7576112d661127d565b5b50919050565b7f43616e6e6f74206772616e742061636365737320746f20796f757273656c6600600082015250565b6000611313601f83611211565b915061131e826112dd565b602082019050919050565b6000602082019050818103600083015261134281611306565b9050919050565b60008190508160005260206000209050919050565b60006020601f8301049050919050565b600082821b905092915050565b6000600883026113ab7fffffffffffffffffffffffffffffffffffffffffffffffffffffffffffffffff8261136e565b6113b5868361136e565b95508019841693508086168417925050509392505050565b6000819050919050565b6000819050919050565b60006113fc6113f76113f2846113cd565b6113d7565b6113cd565b9050919050565b6000819050919050565b611416836113e1565b61142a61142282611403565b84845461137b565b825550505050565b600090565b61143f611432565b61144a81848461140d565b505050565b5b8181101561146e57611463600082611437565b600181019050611450565b5050565b601f8211156114b35761148481611349565b61148d8461135e565b8101602085101561149c578190505b6114b06114a88561135e565b83018261144f565b50505b505050565b600082821c905092915050565b60006114d6600019846008026114b8565b1980831691505092915050565b60006114ef83836114c5565b9150826002028217905092915050565b61150882611047565b67ffffffffffffffff81111561152157611520610d3e565b5b61152b82546112ac565b611536828285611472565b600060209050601f8311600181146115695760008415611557578287015190505b61156185826114e3565b8655506115c9565b601f19841661157786611349565b60005b8281101561159f5784890151825560018201915060208501945060208101905061157a565b868310156115bc57848901516115b8601f8916826114c5565b8355505b6001600288020188555050505b505050505050565b7f43616e6e6f7420717565727920796f7572206f776e2066696c65730000000000600082015250565b6000611607601b83611211565b9150611612826115d1565b602082019050919050565b60006020820190508181036000830152611636816115fa565b9050919050565b7f4e487b7100000000000000000000000000000000000000000000000000000000600052603260045260246000fd5b7f4e487b7100000000000000000000000000000000000000000000000000000000600052601160045260246000fd5b60006116a6826113cd565b91507fffffffffffffffffffffffffffffffffffffffffffffffffffffffffffffffff82036116d8576116d761166c565b5b600182019050919050565b60006116ee826113cd565b91506116f9836113cd565b92508282039050818111156117115761171061166c565b5b92915050565b7f4e487b7100000000000000000000000000000000000000000000000000000000600052603160045260246000fdfea264697066735822122083a42fce9a48aa9af07849ffea714fbf61031e7dac6ff85b8071a07a9caa2b1964736f6c63430008110033",
  "linkReferences": {},
  "deployedLinkReferences": {}
}